:100000000C945D000C9485000C9485000C94850084
:100010000C9485000C9485000C9485000C9485004C
:100020000C9485000C9485000C9485000C94530866
:100030000C9485000C9485000C9485000C9485002C
:100040000C94A4010C9485000C94F8030C942A04DD
:100050000C9485000C9485000C9485000C9485000C
:100060000C9485000C94850000000008000201003B
:100070000003040700000000000000000102040863
:100080001020408001020408102001020408102002
:10009000040404040404040402020202020203032E
:1000A0000303030300000000250028002B000000CC
:1000B0000000240027002A005A0411241FBECFEF9D
:1000C000D8E0DEBFCDBF11E0A0E0B1E0EAE8F3E1A7
:1000D00002C005900D92AA3EB107D9F723E0AAEE1F
:1000E000B1E001C01D92A632B207E1F710E0CDE504
:1000F000D0E004C02197FE010E94BD09CC35D10794
:10010000C9F70E9438010C94C3090C944F080000F1
:100110002F923F924F925F926F927F928F929F9217
:10012000AF92BF92CF92DF92EF92FF920F931F9305
:10013000CF93DF93E42FF52F419050804F925F9241
:10014000E42FF52F4DB65EB6419250820C94A80074
:10015000E62FF72F419050804DBE5EBE5F904F90CE
:10016000E62FF72F41925082DF91CF911F910F918F
:10017000FF90EF90DF90CF90BF90AF909F908F90C7
:100180007F906F905F904F903F902F900C946405FC
:10019000E62FF72F419150814DBF5EBF0C946D0546
:1001A0002F923F924F925F926F927F928F929F9287
:1001B000AF92BF92CF92DF92EF92FF920F931F9375
:1001C000CF93DF93E42FF52F419050804F925F92B1
:1001D000E42FF52F4DB65EB6419250820C94C800C4
:1001E000E82FF92F419150814DBF5EBFE62FF72FC9
:1001F000099400008091EC01811119C08091EA01FD
:100200009091EB01892B39F48DB79EB79093EB0158
:100210008093EA0108958DB79EB72091EA0130914D
:10022000EB012817390719F081E08093EC0108955C
:100230000E94FA0089EF92E0892B11F00C94F902E8
:100240000895CF93DF93C0E0D1E061E088810E9400
:10025000520260E088810E948E0226E040E052EC6B
:1002600061E070E088E892E0DF91CF910C94960312
:100270000E94EE010E94210180E00E94C00490E0F3
:1002800080E0089520917D0230917E022332310575
:1002900034F480917B0290917C02019779F5109261
:1002A0007E0210927D0281E090E090937C02809328
:1002B0007B028091790290917A028430910551F409
:1002C00010927A021092790210927C0210927B02B4
:1002D0000C944A05880F991FFC01E256FE4F60817D
:1002E000809100010E948E028091790290917A02A1
:1002F000019690937A0280937902EACF809100016F
:100300002A30310594F4220F331FF901EC53FE4FCC
:1003100060810E948E0280917D0290917E02019602
:1003200090937E0280937D02D3CF2931310534F43E
:10033000220F331FF901EE56FE4FEACF220F331F73
:10034000F901EE56FE4FE4CF1F920F920FB60F92B7
:1003500011242F933F938F939F93AF93BF938091DB
:10036000800290918102A0918202B091830230912B
:100370007F0223E0230F2D3758F50196A11DB11DF3
:1003800020937F028093800290938102A093820247
:10039000B09383028091840290918502A09186029D
:1003A000B09187020196A11DB11D809384029093A4
:1003B0008502A0938602B0938702BF91AF919F916F
:1003C0008F913F912F910F900FBE0F901F90189516
:1003D00026E8230F0296A11DB11DD2CF789484B5D3
:1003E000826084BD84B5816084BD85B5826085BD31
:1003F00085B5816085BDEEE6F0E080818160808317
:10040000E1E8F0E0108280818260808380818160F9
:100410008083E0E8F0E0808181608083E1EBF0E0C0
:10042000808184608083E0EBF0E080818160808364
:10043000EAE7F0E08081846080838081826080834D
:100440008081816080838081806880831092C10078
:100450000895833081F028F4813099F08230A9F03A
:1004600008958730A9F08830C9F08430B1F48091C4
:1004700080008F7D03C0809180008F778093800003
:10048000089584B58F7784BD089584B58F7DFBCFA3
:100490008091B0008F778093B00008958091B00074
:1004A0008F7DF9CFCF93DF9390E0FC01E458FF4FAD
:1004B000249180579F4FFC0184918823C9F090E0DC
:1004C000880F991FFC01E255FF4FA591B491FC01E3
:1004D000EC55FF4FC591D49161110DC09FB7F894B1
:1004E0008C91209582238C938881282328839FBF19
:1004F000DF91CF910895623051F49FB7F8943C9109
:10050000822F809583238C93E8812E2BEFCF8FB79A
:10051000F894EC912E2B2C938FBFEACF1F93CF939F
:10052000DF93282F30E0F901E859FF4F8491F9015A
:10053000E458FF4FD491F901E057FF4FC491CC2309
:10054000A9F0162F81110E942902EC2FF0E0EE0F86
:10055000FF1FEC55FF4FA591B4918FB7F894EC9124
:10056000111108C0D095DE23DC938FBFDF91CF91AE
:100570001F910895DE2BF8CFFC01918D228D892FDC
:1005800090E0805C9F4F821B91098F73992708959B
:10059000FC01918D828D981731F0828DE80FF11D4D
:1005A000858D90E008958FEF9FEF0895FC01918D68
:1005B000828D981761F0A28DAE0FBF2FB11D5D9691
:1005C0008C91928D9F5F9F73928F90E008958FEF33
:1005D0009FEF0895FC01538D448D252F30E0842F2B
:1005E00090E0821B930B541710F0CF96089501975B
:1005F000089580E594E0892B49F080E090E0892B14
:1006000029F00E94500481110C9400000895FC010F
:10061000A48DA80FB92FB11DA35ABF4F2C91848D63
:1006200090E001968F739927848FA689B7892C93C0
:10063000A089B1898C91837080648C93938D848D13
:10064000981306C00288F389E02D80818F7D808316
:100650000895CF93DF93EC01888D8823B9F0AA89A0
:10066000BB89E889F9898C9185FD03C0808186FD6D
:100670000DC00FB607FCF7CF8C9185FFF2CF8081BC
:1006800085FFEDCFCE010E940703E9CFDF91CF9127
:100690000895EF92FF920F931F93CF93DF93EC0196
:1006A00081E0888F9B8D8C8D98131AC0E889F98919
:1006B000808185FF15C09FB7F894EE89FF8960831C
:1006C000E889F98980818370806480839FBF81E09D
:1006D00090E0DF91CF911F910F91FF90EF900895DF
:1006E000F62E0B8D10E00F5F1F4F0F731127E02EBA
:1006F0008C8D8E110CC00FB607FCFACFE889F989F2
:10070000808185FFF5CFCE010E940703F1CFEB8DED
:10071000EC0FFD2FF11DE35AFF4FF0829FB7F894C5
:100720000B8FEA89FB8980818062CFCFCF92DF92E5
:10073000EF92FF921F93CF93DF93EC016A017B014D
:10074000122FE889F98982E08083C11481EED806EE
:10075000E104F104A1F060E079E08DE390E0A7010D
:1007600096010E949B092150310941095109569572
:10077000479537952795211580E1380798F0E88946
:10078000F989108260E874E88EE190E0A701960193
:100790000E949B09215031094109510956954795FD
:1007A00037952795EC85FD853083EE85FF85208381
:1007B000188EEC89FD891083EA89FB89808180612C
:1007C0008083EA89FB89808188608083EA89FB894C
:1007D000808180688083EA89FB8980818F7D808326
:1007E000DF91CF911F91FF90EF90DF90CF90089510
:1007F0001F920F920FB60F9211242F938F939F93F6
:10080000EF93FF93E0919802F09199028081E0913B
:100810009E02F0919F0282FD1BC090818091A102F7
:100820008F5F8F732091A202821741F0E091A102A5
:10083000F0E0E857FD4F958F8093A102FF91EF9173
:100840009F918F912F910F900FBE0F901F90189531
:100850008081F4CF1F920F920FB60F9211242F9325
:100860003F934F935F936F937F938F939F93AF9338
:10087000BF93EF93FF9388E892E00E940703FF91F4
:10088000EF91BF91AF919F918F917F916F915F9108
:100890004F913F912F910F900FBE0F901F90189581
:1008A00088E892E00E94BC0221E0892B09F420E054
:1008B000822F0895E8E8F2E01382128288EE93E036
:1008C000A0E0B0E084839583A683B7838CED91E0AC
:1008D0009183808385EC90E09587848784EC90E019
:1008E0009787868780EC90E0918B808B81EC90E0FD
:1008F000938B828B82EC90E0958B848B86EC90E0DE
:10090000978B868B118E128E138E148E0895AF9254
:10091000BF92CF92DF92EF92FF920F931F93CF93EC
:10092000DF936C017B018B01040F151FEB015E014E
:10093000AE18BF08C017D10759F06991D601ED91E3
:10094000FC910190F081E02DC6010995892B79F782
:10095000C501DF91CF911F910F91FF90EF90DF9034
:10096000CF90BF90AF90089568EE73E080E090E084
:100970000C947B0880914001909141010C942707D1
:100980007F928F929F92AF92BF92CF92DF92EF921F
:10099000FF920F931F93CF93DF9300D0CDB7DEB7B5
:1009A00000913A0110913B019FB7F894D801189635
:1009B0002D913C91232B99F09FBF81E090E00F9007
:1009C0000F90DF91CF911F910F91FF90EF90DF90EB
:1009D000CF90BF90AF909F908F907F900895F82E0A
:1009E00081E598E09A8389830E94B404C0903E0117
:1009F000D0903F0181E090E0F80191878087F286F6
:100A0000E0914201F091430124E0F29EC0011124E3
:100A1000E80FF91FA280B380F12CE12C4F0186E092
:100A2000782EEA14FB04E1F4F801808591850197A2
:100A300021F482E090E091878087D80118968D910B
:100A40009C91029751F4F60162817381AB01C6015A
:100A50000E94D000C6010E94C50590E080E0AFCFA3
:100A6000D401ED91FC917E9CC0017F9C900D1124DE
:100A7000E80FF91FA081B181248135814281538122
:100A8000BD0112968D919C910E94BE07BFEFEB1A9B
:100A9000FB0AC7CFE0913A01F0913B01A081B181FF
:100AA0008785882319F0178685858FBF81898823DC
:100AB00011F0118A78948FB7F89469E378E0129670
:100AC0008D919C910E94F000DC011496ED91FC91B7
:100AD00084E090E0938382830895EC01EC81FD81B2
:100AE000818124E030E0338322838F3F09F07894C2
:100AF000E985FA850995E0913A01F0913B01108A68
:100B00008785882319F0178685858FBF818988237B
:100B100011F0118A78948FB7F89469E378E08A81AC
:100B20009B810E94F0000F931F93CF93DF9300915E
:100B30003A0110913B01C0913C01D0913D01F80177
:100B400080859185029751F080913E0190913F01FF
:100B5000DF91CF911F910F910C941E08209779F38C
:100B6000FE010995ECCFDC011496ED91FC911597EF
:100B700090811D968C91981728F49F5F908390E048
:100B800080E0089584E090E00895DC011496ED91F2
:100B9000FC9115971B968C91818380818150808375
:100BA000811103C013821282089581E090E0938343
:100BB00082830895E0912E01F0912F0190E0880F3B
:100BC000991FE80FF91F60817181DB011496ED9187
:100BD000FC9180818F5F808350E040E08CE291E067
:100BE0000C947C06AB01FB01A481B581E0913A0134
:100BF000F0913B0112968D919C911397892B31F4C2
:100C000081E090E013969C938E931297A481B58116
:100C10008D919C9111979583848311961C921E92BD
:100C2000BD01CF0102960C946A09AF92BF92CF9298
:100C3000DF92EF92FF920F931F93CF93DF93C091B8
:100C40003A01D0913B01FE01019111917F01F80120
:100C5000C480D580FB0111830083F60182819381DA
:100C6000049731F5B7018AE391E00E9471095C01B4
:100C7000E880F9800E151F05B1F0C8010E94C50576
:100C80008C819D81F50191838083BD82AC82C701F7
:100C9000DF91CF911F910F91FF90EF90DF90CF9058
:100CA000BF90AF900895F601808181508083E8CF96
:100CB0006E817F81FB01808191819F838E83F8010A
:100CC0008385F601818381E090E093838283A8018C
:100CD000C7010E946A09B7018AE391E00E94D9081E
:100CE000892B39F4EE81FF81E280F380F982E8827A
:100CF000CECFE880F980CBCFCF93DF93E0913A015C
:100D0000F0913B018081918126813781EC01AC819A
:100D1000BD811296CD91DC911397249731F4C2E0F6
:100D2000D0E01396DC93CE931297718360834115C4
:100D30005105B9F4A481B5814D915C91119755830A
:100D4000448311961C921E92B783A6830680F78176
:100D5000E02D7383628331832083DF91CF910C94E4
:100D6000F80757834683F2CFAF92BF92CF92DF92BC
:100D7000EF92FF920F931F93CF93DF93DC01AD901F
:100D8000BC90E501E881F9812A813B81DB01CD90AE
:100D9000DC90E6015B834A8381E090E0B0E0A0E074
:100DA000309711F00097A9F4109779F10D90BC914C
:100DB000A02D6D937C93E601F983E883DF91CF91B9
:100DC0001F910F91FF90EF90DF90CF90BF90AF9069
:100DD000089500811181E801EA80FB802E153F050E
:100DE00058F44E155F0518F42417350758F0DF0145
:100DF000E801E881F981D4CF2417350718F04E15A2
:100E00005F05A8F790E080E0CBCFD501D2CFCF939C
:100E1000DF93DC011296ED91FC9113970D90BC913C
:100E2000A02D12962D913C91DF01A41BB50BA217AA
:100E3000B30730F0420F531FDF91CF910C94B406EB
:100E400041505109420F531F4E1B5F0BF5CFAF921C
:100E5000BF92CF92DF92EF92FF920F931F93CF93A7
:100E6000DF93DC01ED90FC901197F7012281338133
:100E700012964D915C912417350708F46EC01382C9
:100E8000128230E020E0F701C081D181209709F47F
:100E900059C0A881B98112964D915C9142175307B0
:100EA00009F050C0DE0103E010E02D913C91D90122
:100EB00015961C930E9314970D90BC91A02D10972E
:100EC00049F06D917C911197FB0162817381461706
:100ED000570759F38C01F90111821082F701B18390
:100EE000A08382E0E82EF12CE881F981A080B18016
:100EF0008A859B8582309105A9F183309105B9F1EE
:100F0000892B61F4CE80DF80C6010E94B305892B56
:100F100029F4B6018CE291E00E94F205E881F981A2
:100F200084819581039759F4468157814115510574
:100F300011F1F582E482BE01C8010E940707E501B4
:100F4000209791F6DF91CF911F910F91FF90EF9035
:100F5000DF90CF90BF90AF9008952F5F3F4F3383C6
:100F6000228391CF888599850E942707D7CFEC816E
:100F7000FD810995D3CF15821482E1CFCF93DF9302
:100F8000DB01ED91FC91A481B581A230B10568F53A
:100F900037832683119711F5EC012A813B81A881C3
:100FA000B98112968D919C91B901641B750B6817DC
:100FB000790768F0480F591F5383428384E090E01B
:100FC0009583848390E080E0DF91CF910895415034
:100FD0005109480F591F421B530BEECF22E030E05E
:100FE000358324830E940707EDCF87E090E0ECCFA4
:100FF000FB01DC0112964D915C9162817381A481A9
:10100000B58112968D919C91029719F4CF010C94A1
:101010008800CF010C94D000CB01DB0112966D91BA
:101020007C9113971496ED91FC91228133812230AB
:10103000310511F40C94A8000C94C800DC01129640
:101040006D917C911397ED91FC9140815181DB0171
:10105000ED91FC91228933892115310519F0421750
:10106000530729F4DB01ED93FC930C94A800F901DC
:10107000F1CFCF93DF9300D0CDB7DEB7BE016F5F66
:101080007F4F8CE291E00E941506BC0189819A8114
:101090000E940C080F900F90DF91CF910895F89463
:1010A000FFCFEEE908958F939F9380E00E945B0845
:1010B0009F918F9118951F920F920FB60F92112446
:1010C0002F933F934F935F936F937F93AF93BF9310
:1010D000EF93FF930E94DA05FF91EF91BF91AF91DB
:1010E0007F916F915F914F913F912F910F900FBE24
:1010F0000F901F900895109281001092800010921E
:1011000082001092850010928400611520E1720720
:1011100081059105A0F4E4E0660F771FEA95E1F7F9
:101120006150710981E092E096BB90936F007093DB
:10113000890060938800886080938100089561151C
:1011400020E872078105910530F4660F771F615022
:10115000710982E0E8CF6C3F2FEF720723E082072E
:10116000910558F442E096958795779567954A954D
:10117000D1F76150710983E0D6CF6115710520E187
:101180008207910558F434E0969587957795679591
:101190003A95D1F76150710984E0C5CF26E0969564
:1011A0008795779567952A95D1F76150710985E004
:1011B000BACF0F931F93CF93DF93EC01A881B9812E
:1011C000EB01E881F9811696CD91DC911797209774
:1011D000C1F18A819B81309709F43FC0EC010C81F9
:1011E0001D8122813381E9014C815D81E8013981D2
:1011F000EA012981321788F522E030E0E8013B83DB
:101200002A8320813181EB0139832883C281D381F4
:101210002C813D8116964D915C91179751834083A7
:101220001796FC93EE931697CD93DC934C85F901BA
:101230005181541708F44183DF91CF911F910F9191
:101240000895309751F0EC018C819D81EC014C8127
:101250005D8122E030E0EA01D2CF90E080E0ECCF87
:10126000CF93DF93DB011296ED91FC91411551056F
:10127000A1F02385DC01ED91FC91B0E0A0E0309776
:1012800089F4109709F16D937C9390E080E0DB0185
:10129000ED93FC93DF91CF9108950480F581E02DCB
:1012A0002181E8CFC281D3814115510541F03B85B1
:1012B000321738F3DF010190F081E02DE0CF0C8090
:1012C000DD81C02D3981F4CFDC016D937C9381E009
:1012D00090E0DDCFFB015383428341E050E00C946A
:1012E0003009EF92FF920F931F93CF93DF938C01FE
:1012F000FC01C081D181EE80FF80F7018081918166
:101300009F838E83C8010E94D908892B41F4EE8106
:10131000FF81309761F08281938199838883C7012F
:10132000DF91CF911F910F91FF90EF900895F801F9
:1013300084819581F2CFA1E21A2EAA1BBB1BFD016D
:101340000DC0AA1FBB1FEE1FFF1FA217B307E407A4
:10135000F50720F0A21BB30BE40BF50B661F771FFC
:10136000881F991F1A9469F76095709580959095DC
:101370009B01AC01BD01CF010895EE0FFF1F059049
:0A138000F491E02D0994F894FFCFDA
:10138A000D0088010000140100000000FF000000A9
:10139A0000000000180100000000000000800000AA
:1013AA000001000001000400780200002503660124
:1013BA0003005E01010050010100020118018801C9
:1013CA006001460101004A01010052010100640066
:1013DA005201ED01600100007A0100000000600185
:1013EA00F501FFFF01006C017A0188019A012A01C7
:1013FA001C01000200BA0480FF01960128012001A5
:10140A0001000042010101019A012A01240102039B
:10141A00009305000001F9018000000000000000AF
:10142A0000000000000001000100010000000100AE
:10143A00010001000000010001000100000000009D
:10144A00000000000100000001000000010000008F
:10145A0000000000000000000000000049038704AB
:0A146A00EA022903BC02D602C80200
:00000001FF
